{
    "_format": "hh-sol-artifact-1",
    "contractName": "MedicalData",
    "sourceName": "contracts/MedicalData.sol",
    "abi": [
        {
            "anonymous": false,
            "inputs": [
                {
                    "indexed": true,
                    "internalType": "address",
                    "name": "requester",
                    "type": "address"
                },
                {
                    "indexed": true,
                    "internalType": "uint256",
                    "name": "recordId",
                    "type": "uint256"
                }
            ],
            "name": "PermissionGranted",
            "type": "event"
        },
        {
            "inputs": [
                {
                    "internalType": "string",
                    "name": "_dataHash",
                    "type": "string"
                }
            ],
            "name": "createRecord",
            "outputs": [],
            "stateMutability": "nonpayable",
            "type": "function"
        },
        {
            "inputs": [
                {
                    "internalType": "uint256",
                    "name": "_recordId",
                    "type": "uint256"
                }
            ],
            "name": "grantPermission",
            "outputs": [],
            "stateMutability": "nonpayable",
            "type": "function"
        },
        {
            "inputs": [],
            "name": "recordCount",
            "outputs": [
                {
                    "internalType": "uint256",
                    "name": "",
                    "type": "uint256"
                }
            ],
            "stateMutability": "view",
            "type": "function"
        },
        {
            "inputs": [
                {
                    "internalType": "uint256",
                    "name": "",
                    "type": "uint256"
                }
            ],
            "name": "records",
            "outputs": [
                {
                    "internalType": "string",
                    "name": "dataHash",
                    "type": "string"
                },
                {
                    "internalType": "address",
                    "name": "owner",
                    "type": "address"
                }
            ],
            "stateMutability": "view",
            "type": "function"
        }
    ],
    "bytecode": "0x608060405234801561001057600080fd5b50610842806100206000396000f3fe608060405234801561001057600080fd5b506004361061004c5760003560e01c80633446106714610051578063897e001114610082578063900407bc1461009e578063db70504b146100bc575b600080fd5b61006b600480360381019061006691906104b6565b6100d8565b604051610079929190610576565b60405180910390f35b61009c600480360381019061009791906104b6565b6101a4565b005b6100a661028e565b6040516100b391906105c6565b60405180910390f35b6100d660048036038101906100d19190610475565b610294565b005b60006020528060005260406000206000915090508060000180546100fb906106dc565b80601f0160208091040260200160405190810160405280929190818152602001828054610127906106dc565b80156101745780601f1061014957610100808354040283529160200191610174565b820191906000526020600020905b81548152906001019060200180831161015757829003601f168201915b5050505050908060010160009054906101000a900473ffffffffffffffffffffffffffffffffffffffff16905082565b60008082815260200190815260200160002060010160009054906101000a900473ffffffffffffffffffffffffffffffffffffffff1673ffffffffffffffffffffffffffffffffffffffff163373ffffffffffffffffffffffffffffffffffffffff1614610247576040517f08c379a000000000000000000000000000000000000000000000000000000000815260040161023e906105a6565b60405180910390fd5b803373ffffffffffffffffffffffffffffffffffffffff167faf9b5d74046d963a6cd81128df1ac9e7b28a36f2dfb1f66941386518ab5afa7f60405160405180910390a350565b60015481565b600160008154809291906102a79061070e565b919050555060405180604001604052808281526020013373ffffffffffffffffffffffffffffffffffffffff1681525060008060015481526020019081526020016000206000820151816000019080519060200190610307929190610355565b5060208201518160010160006101000a81548173ffffffffffffffffffffffffffffffffffffffff021916908373ffffffffffffffffffffffffffffffffffffffff16021790555090505050565b828054610361906106dc565b90600052602060002090601f01602090048101928261038357600085556103ca565b82601f1061039c57805160ff19168380011785556103ca565b828001600101855582156103ca579182015b828111156103c95782518255916020019190600101906103ae565b5b5090506103d791906103db565b5090565b5b808211156103f45760008160009055506001016103dc565b5090565b600061040b61040684610612565b6105e1565b90508281526020810184848401111561042357600080fd5b61042e84828561069a565b509392505050565b600082601f83011261044757600080fd5b81356104578482602086016103f8565b91505092915050565b60008135905061046f816107f5565b92915050565b60006020828403121561048757600080fd5b600082013567ffffffffffffffff8111156104a157600080fd5b6104ad84828501610436565b91505092915050565b6000602082840312156104c857600080fd5b60006104d684828501610460565b91505092915050565b6104e88161065e565b82525050565b60006104f982610642565b610503818561064d565b93506105138185602086016106a9565b61051c816107e4565b840191505092915050565b6000610534600e8361064d565b91507f4e6f7420617574686f72697a65640000000000000000000000000000000000006000830152602082019050919050565b61057081610690565b82525050565b6000604082019050818103600083015261059081856104ee565b905061059f60208301846104df565b9392505050565b600060208201905081810360008301526105bf81610527565b9050919050565b60006020820190506105db6000830184610567565b92915050565b6000604051905081810181811067ffffffffffffffff82111715610608576106076107b5565b5b8060405250919050565b600067ffffffffffffffff82111561062d5761062c6107b5565b5b601f19601f8301169050602081019050919050565b600081519050919050565b600082825260208201905092915050565b600061066982610670565b9050919050565b600073ffffffffffffffffffffffffffffffffffffffff82169050919050565b6000819050919050565b82818337600083830152505050565b60005b838110156106c75780820151818401526020810190506106ac565b838111156106d6576000848401525b50505050565b600060028204905060018216806106f457607f821691505b6020821081141561070857610707610786565b5b50919050565b600061071982610690565b91507fffffffffffffffffffffffffffffffffffffffffffffffffffffffffffffffff82141561074c5761074b610757565b5b600182019050919050565b7f4e487b7100000000000000000000000000000000000000000000000000000000600052601160045260246000fd5b7f4e487b7100000000000000000000000000000000000000000000000000000000600052602260045260246000fd5b7f4e487b7100000000000000000000000000000000000000000000000000000000600052604160045260246000fd5b6000601f19601f8301169050919050565b6107fe81610690565b811461080957600080fd5b5056fea2646970667358221220e0f010272f9cb66b90ea9f90d3db31b9e8f9f09f3171712aa6ee790df872163c64736f6c63430008000033"
}